:020000040800F2
:10000000200600200101000875380008312E000884
:10001000053600080D040008B9460008000000007D
:10002000000000000000000000000000553A000839
:100030006304000800000000893900087F3B0008C5
:100040001B0100081B0100081B0100081B01000820
:100050001B0100081B0100081B0100081B01000810
:100060001B0100081B0100081B0100081B01000800
:100070001B0100081B0100081B0100081B010008F0
:100080001B0100081B0100081B0100081B010008E0
:100090001B010008110400081B0100081B010008D7
:1000A0001B0100081B0100081B0100081B010008C0
:1000B000F13B00081B010008013C00081B0100087F
:1000C0001B0100081B0100081B0100081B010008A0
:1000D0001B010008914400081B0100081B010008D7
:1000E0001B0100081B0100081B010008DFF80CD0F1
:1000F00000F07AF9004800474D480008200600202B
:100100000648804706480047FEE7FEE7FEE7FEE7B1
:10011000FEE7FEE7FEE7FEE7FEE7FEE7ED3B000851
:10012000ED000008D2B201E000F8012B491EFBD21D
:1001300070470022F6E710B513460A4604461946F2
:10014000FFF7F0FF204610BDF0B480EA0102D40FA3
:100150004200B2EB410F02D20246084611464A0065
:1001600042D0C30DDDB2C1F3C752AD1A202D35DA2E
:10017000C1F3160141F4000204B15242C5F1200658
:1001800002FA06F12A411044B3EBD05F23D0C4B188
:10019000012DA0EBC35009DCF0BC4FF0004202EA95
:1001A000C352DBB200F5000000F0EFB8400000F1F0
:1001B000807000EBC350A0F1807040EAD17049001C
:1001C00009E0490841EAC071A0EBC35000F5000006
:1001D000400800EBC350F0BC00F0CEB861420122F1
:1001E00002EB4101001BF6E7F0BC704781F00041D3
:1001F000AAE780F00040A7E780EA010210B502F00C
:100200000043400022D04A001FD0010E01EB1261D2
:10021000C0F35600C2F3560240F4000042F400025C
:10022000A0FB022000047F39140400D0401C50EAD7
:10023000124001D44000491EC2B20C0604EBD0109B
:10024000401C4008802A02D003E0002010BD20F0AE
:100250000100002900DA0020184310BD30B480EA04
:10026000010202F0004530F0004221F0004013D0BE
:1002700090B1C30DD40DC2F31601C0F31600E41AF9
:1002800041F4000140F400027D34914201D3641C2A
:1002900000E04900002C02DA30BC002070474FF427
:1002A00000000023914201D3891A034340084FEA1A
:1002B0004101F7D151B1914202D14FF0004105E027
:1002C00002D24FF0010101E06FF0010103EBC450D5
:1002D000284430BC00F050B8C10F80EAE0700844F8
:1002E000CA079623002100F050B896230022114639
:1002F00000F04BB800F0004220F00040C10DC0F308
:10030000160040F400007F2901DA0020704796298A
:1003100003DCC1F19601C84001E096398840002A0B
:10032000F4D04042704720F00040C10DC0F31600E9
:1003300040F400007F2901DA00207047962903DC91
:10034000C1F19601C8407047963988407047000057
:10035000002801DBC0F10040002901DBC1F10041B0
:1003600081427047002801DBC0F10040002901DB19
:10037000C1F10041884270470029A8BF7047401C66
:10038000490008BF20F00100704710B4B0FA80FCAB
:1003900000FA0CF050EA010404BF10BC704749B1E8
:1003A000CCF1200421FA04F411FA0CF118BF012158
:1003B00021430843A3EB0C01CB1D4FEA00614FEA38
:1003C000102042BF002010BC704700EBC350104407
:1003D0000029A4BF10BC7047401C490008BF20F092
:1003E000010010BC70470000064C074D06E0E068B5
:1003F00040F0010394E8070098471034AC42F6D36C
:10040000FFF778FE184B0008384B000800BFFEE7E6
:1004100010B5024800F0F7F910BD000048000020B8
:100420000021016041608160C160016141618161C1
:100430000121C161016200214162704710B58AB09B
:1004400004466846FFF7ECFF6946204600F055F980
:100450000221204600F097F8204600F006FC0AB082
:1004600010BD70472DE9FF4706460F4615469846D2
:10047000DDE90D9A0C9C0020009001900290039001
:100480008DF80060FD208DF801008DF802702812B3
:100490008DF80300E8B28DF804008DF80580200E79
:1004A0008DF80600200C8DF80700200A8DF8080052
:1004B000E0B28DF809008DF80A908DF80BA06B2042
:1004C0008DF80C000D21684604F04CF9BDE8FF875B
:1004D00072B600BFFEE700002DE9FE4F04460D4650
:1004E00016461F46DDE90D9ADDF83080B42C00DD9C
:1004F000B4244FF4486204FB02F10846FFF7ECFE17
:100500000A490190FFF7AAFE4FF07C510290FFF7D5
:100510001BFE8346FFF707FF43463A4631468DE808
:1005200001062846FFF79EFFBDE8FE8FEC51FB4217
:1005300010B5024692F82030012B01D0022B1CD1BD
:1005400001F0010028B11068806840F08000146854
:10055000A06001F0020028B11068806840F40040FB
:100560001468A06001F0040028B11068806840F4AD
:1005700000001468A060002010BD506A40F4802084
:1005800050620120F8E710B5024692F82030012BA6
:1005900001D0022B06D110684069084314686061DD
:1005A000002010BD506A40F4802050620120F8E71E
:1005B000F0B504460D461E4694F820702068836806
:1005C000A86800B900E000BF012F01D0022F7DD143
:1005D00003F0806030B903F0006018B903F0805078
:1005E00000287ED0C3F30161012088403060A868F4
:1005F00060B9B5F800C0E86840EA4C5C206800F5D6
:10060000C07000EB0110C0F800C00FE0D5E901C0D8
:1006100040EACC00D5F80CC040EA0C00D4F800C089
:100620000CF5C07C0CEB011CCCF80000D5F810C018
:10063000206800F5C07000EB0110C0F804C0287DF0
:1006400001280ED1206800F5C07000EB0110406851
:1006500040F4807C206800F5C07000EB0110C0F809
:1006600004C0D079000692F806C040EA0C4092F827
:1006700005C040EA0C2092F804C040EA0C00D4F80F
:1006800000C00CF5C07C0CEB011CCCF80C00D07841
:10069000000692F802C040EA0C4092F801C040EA1D
:1006A0000C2092F800C040EA0C00D4F800C00CF511
:1006B000C07C0CEB011CCCF80800206800F5C07071
:1006C00000EB0110006840F0010C01E00FE008E0D1
:1006D000206800F5C07000EB0110C0F800C00020D9
:1006E000F0BD606A40F4001060620120F8E7606AC3
:1006F00040F4802060620120F2E7F0B504460A462B
:10070000216894F82050012D01D0022D74D1D1F828
:10071000000240F00100C1F80002107D00F01F0649
:10072000012000FA06F3D1F81C029843C1F81C021C
:10073000D069C8B9D1F80C029843C1F80C0290886E
:1007400080B2968940EA064601F51070576940F874
:100750003760108880B2168940EA064601F51070AD
:10076000576900EBC7004660D069012819D1D1F85C
:100770000C021843C1F80C02908880B2168840EA37
:10078000064601F51070576940F83760908980B2CD
:10079000168940EA064601F51070576900EBC7005C
:1007A0004660906928B9D1F804029843C1F8040260
:1007B00004E0D1F804021843C1F80402106928B912
:1007C000D1F814029843C1F8140204E0D1F81402DD
:1007D0001843C1F81402106A012804D1D1F81C0290
:1007E0001843C1F81C02D1F8000220F00100C1F842
:1007F00000020020F0BDFFE7606A40F480206062E4
:100800000120F7E770472DE9F05F044600252068D6
:1008100046692068D0F80490206887682068D0F87E
:100820000CA02068D0F810B02068D0F8188006F02E
:100830000100002855D007F00100C0B10120216857
:10084000886007F0020018B1204600F03EFA0EE082
:1008500007F0040010B145F4006508E007F0080057
:1008600010B145F4805502E0204600F02DFA07F45F
:100870008070C8B14FF480702168886007F4007000
:1008800018B1204600F023FA0EE007F4806010B1A2
:1008900045F4005508E007F4006010B145F48045C8
:1008A00002E0204600F012FA07F48030C8B14FF49D
:1008B00080302168886007F4003018B1204600F0CD
:1008C00008FA0EE007F4802010B145F4004508E076
:1008D00007F4002010B145F4803502E0204600F016
:1008E000F7F906F0080038B10AF0100020B145F41D
:1008F000007510202168C86006F0040040B10AF0BD
:10090000080028B108202168C860204600F0A8F936
:1009100006F0020038B12068C06800F0030010B192
:10092000204600F09EF906F0400038B10BF01000B0
:1009300020B145F4806510202168086106F0200090
:1009400040B10BF0080028B108202168086120465A
:1009500000F088F906F0100038B12068006900F056
:10096000030010B1204600F07EF906F4003040B1DB
:1009700009F0100028B1102021684860204600F0DE
:1009800073F906F4803040B109F0080028B108205E
:1009900021684860204600F09DF906F4004088B3C5
:1009A00009F0040078B306F4807020B108F001006B
:1009B00008B145F0010506F4007020B108F002000E
:1009C00008B145F0020506F4806020B108F004008B
:1009D00008B145F0040506F40060A0B108F070000D
:1009E00088B108F07000402817D006DC10280BD022
:1009F00020280CD0302819D10CE0502810D06028C5
:100A000014D110E01DE019E045F008050FE045F0B5
:100A100010050CE045F0200509E045F0400506E032
:100A200045F0800503E045F4807500E000BF00BF9D
:100A30002068806920F070002168886104202168A6
:100A400048602DB1606A284360622046FFF7DAFEF5
:100A5000BDE8F09F70B504460CB9012070BD94F854
:100A6000200010B9204600F0AFF82068006840F080
:100A700001002168086000F05BFB05460DE000F016
:100A800057FB401B0A2808D9606A40F400306062B6
:100A9000052084F820000120E0E72068406800F08D
:100AA00001000028EBD02068006820F002002168D7
:100AB000086000F03DFB05460DE000F039FB401BEF
:100AC0000A2808D9606A40F400306062052084F882
:100AD00020000120C2E72068406800F002000028E2
:100AE000EBD1207E012806D12068006840F080000C
:100AF0002168086005E02068006820F08000216817
:100B00000860607E012806D12068006840F040003F
:100B10002168086005E02068006820F04000216836
:100B20000860A07E012806D12068006840F02000FF
:100B30002168086005E02068006820F02000216836
:100B40000860E07E012806D12068006820F01000CF
:100B50002168086005E02068006840F01000216806
:100B60000860207F012806D12068006840F0080056
:100B70002168086005E02068006820F0080021680E
:100B80000860607F012806D12068006840F00400FA
:100B90002168086005E02068006820F004002168F2
:100BA0000860D4E9020108432169084361690843E8
:100BB0006168491E08432168C86100206062012005
:100BC00084F82000002049E710B586B004460020D4
:100BD00002900390049005901E492068884236D107
:100BE00000BF1D48C06940F000701B49C86108463D
:100BF000C06900F00070019000BF00BF00BF084650
:100C0000806940F0040088610846806900F00400B3
:100C1000019000BF00BFC814029000200390049010
:100C200002A90E4800F0EEF84FF480500290022026
:100C300003900320059002A9084800F0E3F8002281
:100C40001146142000F0E2FD142000F0CFFD06B0A4
:100C500010BD000000640040001002400008014088
:100C60007047704770477047704770B5044694F8F6
:100C70002000012822D1022084F82000206800688A
:100C800020F001002168086000F052FA05460DE0EE
:100C900000F04EFA401B0A2808D9606A40F4003080
:100CA0006062052084F82000012070BD2068406843
:100CB00000F001000028EBD16062F6E7606A40F4C2
:100CC000002060620120F0E770477047704770476E
:100CD0007047704770470146002291F821000228B2
:100CE00008D00420886300BF002081F8200000BFE6
:100CF000012070470868006820F00E000B6818603B
:100D00000868006820F001000B68186091F8403016
:100D100001209840CB6B5860012081F8210000BF72
:100D2000002081F8200000BF1046E2E770B50446BD
:100D3000002594F82100022803D00420A063012597
:100D400048E02068006820F00E00216808602068F4
:100D5000006820F00100216808601F49206888426F
:100D600001D1012026E01C4914312068884201D1BC
:100D700010201FE0184928312068884201D18015D1
:100D800018E015493C312068884201D1801411E0F7
:100D9000114950312068884202D14FF4803009E077
:100DA0000D4964312068884202D14FF4801001E07F
:100DB0004FF08070084908394860012084F821000C
:100DC00000BF002084F8200000BF606B10B12046F7
:100DD000616B8847284670BD0800024070B5044624
:100DE00000F0A6F906462546681C10B104480078B4
:100DF000054400BF00F09CF9801BA842FAD370BDE7
:100E0000080000202DE9F8470346002294466EE1D1
:100E10004FF0010808FA02F4D1F8008008EA040053
:100E2000A0427DD1DFF8DCA2D1F80480A8EB0A094A
:100E3000D0453AD014DCB8F1030F50D009DCB8F13A
:100E4000000F31D0B8F1010F1CD0B8F1020F49D119
:100E500020E0B8F1110F18D0B8F1120F42D11EE006
:100E6000B9F5881F25D006DCB9F5803F20D0B9F54B
:100E7000801F37D11AE0B9F5001F18D0B9F5041F4B
:100E800030D117E0D1F80CC02DE0D1F80C8008F17A
:100E9000040C28E0D1F80C8008F1080C23E0D1F80C
:100EA0000C8008F10C0C1EE000BF00BF00BF00BFAB
:100EB00000BF00BFD1F80880B8F1000F02D14FF099
:100EC000040C0BE0D1F80880B8F1010F03D14FF00A
:100ED000080C1C6102E04FF0080C5C6103E04FF06D
:100EE000000C00E000BF00BFFF2801D8984601E0D9
:100EF00003F104084646FF2802D84FEA820803E0BF
:100F0000A2F108084FEA88084746D6F800804FF05B
:100F10000F0909FA07F928EA09080CFA07F900E0AD
:100F200088E048EA0908C6F80080D1F8048008F093
:100F30008058B8F1805F7DD100BFDFF8CC81D8F850
:100F4000188048F00108DFF8C091C9F81880C84639
:100F5000D8F8188008F00108CDF8008000BF00BF65
:100F60004FEAB9384FEA920958F829504FEA827887
:100F70004FEA18794FF00F0808FA09F825EA080532
:100F8000DFF88881434502D14FF0000816E0DFF812
:100F90008081434502D14FF001080FE0DFF87481F2
:100FA000434502D14FF0020808E0DFF86C81434569
:100FB00002D14FF0030801E04FF004084FEA8279B4
:100FC0004FEA197908FA09F848EA0505DFF84C8173
:100FD0004FEA920948F82950D1F8048008F48018A3
:100FE000B8F5801F0AD1DFF83881D8F8008048EAC8
:100FF0000008DFF82C91C9F8008009E0DFF82081B3
:10100000D8F8008028EA0008DFF81491C9F80080B9
:10101000D1F8048008F40018B8F5001F10D1DFF8EB
:10102000008108F10408D8F8008048EA0008DFF8D9
:10103000F09000E05AE009F10409C9F800800DE0E1
:10104000DFF8DC8008F10408D8F8008028EA0008FE
:10105000DFF8CC9009F10409C9F80080D1F80480C8
:1010600008F40038B8F5003F0ED1DFF8B480A8F1DD
:101070000408D8F8008048EA0008DFF8A490A9F135
:101080000409C9F800800DE0DFF89480A8F1040895
:10109000D8F8008028EA0008DFF88490A9F1040954
:1010A000C9F80080D1F8048008F48038B8F5803F92
:1010B0000ED1DFF86C80A8F10808D8F8008048EA63
:1010C0000008DFF85C90A9F10809C9F800800DE07C
:1010D000DFF84C80A8F10808D8F8008028EA00085A
:1010E000DFF83C90A9F10809C9F80080521CD1F83A
:1010F000008028FA02F8B8F1000F7FF489AEBDE84D
:10110000F8870000000011100010024000080140A4
:10111000000C014000100140001401400800014093
:10112000080401400AB1016101E00B04036170474A
:1011300001480068704700000000002070B50446B8
:101140000CB9012070BD94F83D0028B9002084F846
:101150003C00204600F094FA242084F83D002068EA
:10116000006820F00100216808602068006840F4F1
:101170000040216808602068006820F40040216871
:10118000086000F061FC05465C496068884206D84A
:101190005B48854201D2012007E0002005E0594864
:1011A000854201D2012000E00020012800D1C9E7DA
:1011B0005548B5FBF0F62068406820F03F0030430A
:1011C000216848604D496068884201D8701C07E07A
:1011D0004FF4967070434FF47A71B0FBF1F0401CFD
:1011E0002168096A21F03F010843216808624349E8
:1011F0006068884214D8681E61684900B0FBF1F04D
:10120000401CC0F30B00042801D204203DE0681EFE
:1012100061684900B0FBF1F0401CC0F30B0034E002
:10122000A06838B9681E616801EB4101B0FBF1F0BC
:10123000401C0AE0681E616801EBC10202EB01116B
:10124000B0FBF1F0401C40F48040C0F30B0008B943
:1012500001201AE0A06848B9681E616801EB4101ED
:10126000B0FBF1F0401CC0F30B000CE0681E61689D
:1012700001EBC10202EB0111B0FBF1F0401CC0F325
:101280000B0040F4804040F400402168C9694CF6EE
:10129000FF72914308432168C861D4E907010843FC
:1012A0002168096821F0C001084321680860D4E979
:1012B000031008432168896848F2FF3291430843CC
:1012C00021688860D4E9050108432168C96821F0D4
:1012D000FF0108432168C8602068006840F00100F1
:1012E0002168086000202064202084F83D00002050
:1012F000206384F83E0000BF24E70000A0860100C0
:1013000080841E0000093D0040420F002DE9FE4F81
:1013100004460F4690469946DDE90CAB0E9E002030
:101320000290FFF705FF054694F83D00202872D192
:1013300019230122CE492046009501F04BFE10B141
:101340000220BDE8FE8F00BF94F83C00012801D1C7
:101350000220F6E7012084F83C0000BF2068006806
:1013600000F0010028B92068006840F00100216801
:1013700008602068006820F400602168086022206E
:1013800084F83D00402084F83E0000202064C4F82A
:1013900024A0A4F82AB0608D2085B648E0624B46B0
:1013A000424639462046CDE9006501F063FD08B1AB
:1013B0000120C6E7208D88B900BF00200190206879
:1013C0004069019020688069019000BF00BF2068DB
:1013D000006840F40070216808604BE0208D01280F
:1013E0001AD12068006820F480602168086072B615
:1013F00000BF00200190206840690190206880694A
:10140000019000BF00BF2068006840F400702168B0
:10141000086062B62EE029E1208D022819D12068EB
:10142000006840F400602168086072B600BF0020C8
:10143000019020684069019020688069019000BF98
:1014400000BF2068006820F480602168086062B6F0
:1014500010E02068006840F480602168086000BFE8
:101460000020019020684069019020688069019007
:1014700000BF00BFEBE0208D03287DD8208D012820
:1014800015D12A463146204601F080FE08B10120E0
:1014900057E720680069616A0870606A401C6062F2
:1014A000208D401E2085608D401E6085CFE0208D00
:1014B00002282CD1334600226F492046009501F0C6
:1014C00089FD08B101203CE772B62068006840F44D
:1014D00000702168086020680069616A0870606AAD
:1014E000401C6062208D401E2085608D401E6085FE
:1014F00062B620680069616A0870606A401C6062B8
:10150000208D401E2085608D401E60859FE0334603
:10151000002259492046009501F05CFD08B10120E8
:101520000FE72068006820F480602168086072B6C8
:1015300020680069616A0870606A401C6062208DE2
:10154000401E2085608D401E60854C480068192132
:10155000B0FBF1F04FF47A71B0FBF1F0C0EBC000DA
:1015600000EB8000029000BF0298401E029002989B
:10157000A8B90020206300E039E0202084F83D0075
:10158000002084F83E00206C40F02000206462B609
:1015900000BF002084F83C0000BF0120D1E6206895
:1015A0004069C0F380000028DED02068006840F465
:1015B00000702168086020680069616A0870606ACC
:1015C000401C6062208D401E2085608D401E60851D
:1015D00062B620680069616A0870606A401C6062D7
:1015E000208D401E2085608D401E60852FE02A469C
:1015F0003146204601F0CAFD08B10120A1E620686D
:101600000069616A0870606A401C6062208D401E3B
:101610002085608D401E608520684069C0F3800091
:10162000A8B1208D032805D12068006820F48060CF
:101630002168086020680069616A0870606A401C5F
:101640006062208D401E2085608D401E6085208D4B
:1016500000287FF410AF202084F83D00002084F89B
:101660003E0000BF84F83C0000BF6AE6022068E646
:10167000020010000000FFFF040001000C00002029
:1016800010B586B0044600200290039004900590A7
:101690001A49206888422FD100BF1948806940F05C
:1016A0000800174988610846806900F00800019029
:1016B00000BF00BF4FF4407002901220039003203F
:1016C000059002A90F48FFF79DFB00BF0E4948682F
:1016D00040F0E06040F00200486000BF00BF0848F2
:1016E000C06940F400100649C8610846C06900F4AA
:1016F0000010019000BF00BF06B010BD00540040B4
:1017000000100240000C0140000001400348006846
:101710000349097808440149086070470000002027
:101720000800002010B50848006840F01000064985
:101730000860032000F0A8F80F2000F007F800F080
:101740002BF8002010BD00000020024070B50446B8
:101750000E4800784FF47A71B1FBF0F00C4909683B
:10176000B1FBF0F5284600F0F9FB08B1012070BD8F
:10177000102C07D200222146501E00F047F80548E1
:10178000046001E00120F2E70020F0E708000020FB
:101790000C0000200400002008B500BF114880693B
:1017A00040F001000F4988610846806900F001009F
:1017B000009000BF00BF00BF0846C06940F08050E5
:1017C000C8610846C06900F08050009000BF00BFAB
:1017D00000BF0549486820F0E06040F000704860B4
:1017E00000BF08BD0010024000000140014608464D
:1017F000002809DB00F01F0301229A4043099B00E7
:1018000003F1E023C3F8002100BF70472DE9F05F2A
:1018100080460D461646002702F078FF07463946F7
:101820002A46334601F00700C0F1070ABAF1040F57
:1018300002D94FF0040A01E0C0F1070AD14600F1D5
:10184000040ABAF1070F02D24FF0000A01E0A0F13A
:10185000030AD4464FF0010A0AFA09FAAAF1010A6A
:101860000AEA020A0AFA0CFA4FF0010B0BFA0CFB17
:10187000ABF1010B0BEA030B4AEA0B04214640468D
:1018800002F04CFFBDE8F09F00BF00F00702064BDE
:1018900019684FF6FF031940044B0B4343EA02213A
:1018A000014B196000BF70470CED00E00000FA0525
:1018B00070B504460D460CB9012070BD5A48006849
:1018C00000F00700A8420ED25748006820F0070039
:1018D0002843554908600846006800F00700A84200
:1018E00001D00120E9E7207800F0020002281DD194
:1018F000207800F00400042805D14C48406840F4EA
:10190000E0604A494860207800F00800082805D1C6
:101910004648406840F46050444948604348406845
:1019200020F0F000A168084340494860207800F0AA
:10193000010078B36068012806D13C48006800F4D3
:10194000003090B90120B8E76068022806D1374816
:10195000006800F0007040B90120AEE7334800682D
:1019600000F0020008B90120A7E73048406820F0E5
:101970000300616808432D494860FFF7D9FB06461C
:1019800009E0FFF7D5FB801B41F28831884202D97C
:10199000032092E707E02548406800F00C006168EA
:1019A000B0EB810FEDD12048006800F00700A8429D
:1019B0000ED91D48006820F0070028431A49086026
:1019C0000846006800F00700A84201D0012074E733
:1019D000207800F00400042807D11448406820F45F
:1019E000E060E168084311494860207800F0080091
:1019F000082808D10D48406820F46050216940EA69
:101A0000C1000A49486000F03FF808494968C1F33D
:101A10000311074A515CC84006490860064800683F
:101A2000FFF794FE002048E700200240001002402B
:101A3000FE4A00080C000020040000200148006855
:101A4000704700000C00002000B5FFF7F7FF0449C5
:101A50004968C1F30221034A515CC84000BD00003F
:101A6000001002400E4B000800B5FFF7E7FF0449E5
:101A70004968C1F3C221034A515CC84000BD00005F
:101A8000001002400E4B000870B500210022002417
:101A900000230020134D696801F00C05F5B1042DF9
:101AA00002D0082D19D101E00F4819E00F4DC1F304
:101AB0008346AB5D01F4803555B10A4D6D68C5F3C1
:101AC00040450B4E725D084D5D43B5FBF2F402E0FC
:101AD000084D03FB05F4204602E000BF024800BFAA
:101AE00000BF70BD0010024000127A00EC4A0008EE
:101AF000FC4A000800093D00F8B504460CB9012075
:101B0000F8BD207800F00100002878D0F84840683F
:101B100000F00C0004280CD0F548406800F00C00E0
:101B2000082811D1F248406800F48030B0F5803FB9
:101B30000AD1EF48006800F4003000285FD06068E8
:101B400000285CD10120DBE700BF6068B0F5803F72
:101B500006D1E748006840F48030E549086028E095
:101B6000606858B9E248006820F48030E0490860B5
:101B70000846006820F4802008601AE06068B0F52C
:101B8000A02F0BD1DA48006840F48020D8490860C3
:101B90000846006840F4803008600AE0D4480068D5
:101BA00020F48030D24908600846006820F4802084
:101BB000086000BF606888B1FFF7BAFA054606E022
:101BC000FFF7B6FA401B642801D9032098E7C848FC
:101BD000006800F400300028F2D010E0FFF7A8FA07
:101BE000054606E0FFF7A4FA401B642801D903204C
:101BF00086E7BF48006800F400300028F2D1207862
:101C000000F00200022857D1B948406800F00C00EB
:101C100050B1B748406800F00C00082818D1B4480B
:101C2000406800F4803098B9B148006800F00200C4
:101C300020B12069012801D0012061E7AC4800688B
:101C400020F0F800616940EAC100A949086033E06A
:101C50002069E8B10120A7490860FFF769FA054645
:101C600006E0FFF765FA401B022801D9032047E789
:101C70009F48006800F002000028F2D09C480068ED
:101C800020F0F800616940EAC1009949086013E05A
:101C9000002098490860FFF74BFA054606E0FFF779
:101CA00047FA401B022801D9032029E79048006821
:101CB00000F002000028F2D1207800F00800082887
:101CC0002DD1A069B8B101208B490860FFF730FA27
:101CD000054606E0FFF72CFA401B022801D9032035
:101CE0000EE78348406A00F002000028F2D001208D
:101CF00001F04CFE13E000207F490860FFF718FA5E
:101D0000054606E0FFF714FA401B022801D903201C
:101D1000F6E67748406A00F002000028F2D1207809
:101D200000F00400042873D100277148C06900F056
:101D3000805070B900BF6E48C06940F080506C4957
:101D4000C8610846C06900F08050009000BF00BF25
:101D500001276A48006800F48070B0B967480068DD
:101D600040F4807065490860FFF7E2F9054606E037
:101D7000FFF7DEF9401B642801D90320C0E65F4865
:101D8000006800F480700028F2D000BFE0680128ED
:101D900006D15748006A40F001005549086227E023
:101DA000E06858B95248006A20F0010050490862C2
:101DB0000846006A20F00400086219E0E06805287F
:101DC0000BD14B48006A40F00400494908620846BC
:101DD000006A40F0010008620AE04548006A20F00D
:101DE0000100434908620846006A20F004000862C6
:101DF00000BFE068A0B1FFF79BF9054609E0FFF7D7
:101E000097F9401B41F28831884202D9032077E6D6
:101E100022E03748006A00F002000028EFD012E00C
:101E2000FFF786F9054608E0FFF782F9401B41F20B
:101E30008831884201D9032062E62D48006A00F00B
:101E400002000028F0D1012F05D12948C06920F0F7
:101E500080502749C86100BFE069C8B32448406882
:101E600000F00C00082860D0E069022848D100206A
:101E700020490866FFF75CF9054606E0FFF758F9C8
:101E8000401B022801D903203AE61948006800F0F7
:101E900000700028F2D1206AB0F5803F07D11448C5
:101EA000406820F40030A168084311494860D4E933
:101EB000080108430E49496821F4741108430C498C
:101EC000486001200B490866FFF732F9054607E034
:101ED0003DE0FFF72DF9401B022801D903200FE652
:101EE0000348006800F000700028F2D02FE00000E6
:101EF0000010024000004242800442420070004054
:101F0000002014490866FFF713F9054606E0FFF7BD
:101F10000FF9401B022801D90320F1E50E480068A3
:101F200000F000700028F2D111E0E069012800D132
:101F3000E6E50948466806F48031206A814204D10A
:101F400006F47011606A814201D00120D8E50020BA
:101F5000D6E50000000042420010024070B5044681
:101F60002546681EB0F1807F01D301200FE0681E76
:101F70004FF0E02148610F214FF0FF3002F0CEFB1F
:101F800000204FF0E021886107200861002070BD2B
:101F90007047704730B502460B4600BF92F83C00D0
:101FA000012801D1022030BD012082F83C0000BF91
:101FB000022082F83D00106844681068816824F0AF
:101FC00070041868044310684460104D1068A842FB
:101FD0000BD01068B0F1804F07D00D4D1068A842AB
:101FE00003D00C4D1068A84205D121F0800158683B
:101FF000014310688160012082F83D0000BF00208D
:1020000082F83C0000BF00BFCDE70000002C01407B
:10201000000400400008004070B5044621492068D3
:10202000884202D1207F022800D070BD1E4800786F
:10203000012817D10421204600F023FC1B49088009
:1020400000BF2068006A20F0A000216808622068B4
:10205000006A40F020002168086200BF0220124997
:1020600008701DE010480078022819D1042120468C
:1020700000F007FC85B20D480088281A0C4908803A
:1020800000BF2068006A20F0A00021680862206874
:10209000006A2168086200BF03200349087000BF7E
:1020A00000BFC2E7000800402000002022000020FE
:1020B000240000202DE9F04104460D461646002775
:1020C00000BF94F83C00012802D10220BDE8F08155
:1020D000012084F83C0000BF96B9EB68D5E90012F6
:1020E000206801F0A5FE2068806920F00C002168BE
:1020F000886120688069A96808432168886141E097
:10210000042E13D1EB68D5E90012206801F0C4FE5B
:102110002068806920F440602168886120688069B7
:10212000A96840EA0120216888612BE0082E12D1BD
:10213000EB68D5E90012206801F0CBFE2068C06989
:1021400020F00C002168C8612068C069A9680843B4
:102150002168C86116E00C2E13D1EB68D5E9001296
:10216000206801F0D2FE2068C06920F44060216838
:10217000C8612068C069A96840EA01202168C86177
:1021800000E0012700BF002084F83C0000BF384673
:102190009CE710B504460CB9012010BD94F83D0031
:1021A00028B9002084F83C00204600F025F80220E1
:1021B00084F83D00211D206801F02AFD012084F8EB
:1021C000460000BF84F83E0001213F200155402019
:1021D00001554120015500BF00BF012084F8420095
:1021E00043200155442001554520015500BF0120E1
:1021F00084F83D000020D0E710B586B004460020EA
:1022000002900390049005901849206888422BD1D1
:1022100000BF1748C06940F004001549C86108466E
:10222000C06900F00400019000BF00BF00BF084675
:10223000806940F0080088610846806900F0080065
:10224000019000BF00BF8020029000200390049006
:1022500002A90848FEF7D6FD002202211E20FFF742
:10226000D5FA1E20FFF7C2FA06B010BD00080040E4
:1022700000100240000C01402DE9F04304460D46D9
:10228000002615B994F83E000BE0042D02D13F2042
:10229000005D06E0082D02D14020005D01E04120F4
:1022A000005D804615B994F842000BE0042D02D180
:1022B0004320005D06E0082D02D14420005D01E0CE
:1022C0004520005D8146B8F1010F02D1B9F1010F3F
:1022D00002D00120BDE8F0831DB9022084F83E0041
:1022E0000EE0042D03D102213F20015508E0082D06
:1022F00003D102214020015502E002214120015575
:102300001DB9022084F842000EE0042D03D1022101
:102310004320015508E0082D03D102214420015536
:1023200002E002214520015535B1042D0BD0082DC6
:1023300010D00C2D1CD114E02068C06840F00200C1
:102340002168C86016E02068C06840F00400216879
:10235000C8600FE02068C06840F008002168C860CD
:1023600008E02068C06840F010002168C86001E003
:10237000012600BF00BF06BB01222946206801F0EC
:1023800089FC1249206888420BD02068B0F1804F48
:1023900007D00F492068884203D00E492068884240
:1023A0000CD12068806800F00707062F0CD0206849
:1023B000006840F001002168086005E020680068BE
:1023C00040F0010021680860304683E7002C01409E
:1023D000000400400008004070B504462068C5684D
:1023E0002068066906F00200022819D105F00200F3
:1023F000022815D1401F216808610120207720683C
:10240000806900F0030018B12046FFF705FE05E0E3
:10241000204600F0DFF8204600F0C6F900202077C3
:1024200006F00400042819D105F00400042815D191
:10243000C04321680861022020772068806900F489
:10244000407018B12046FFF7E7FD05E0204600F098
:10245000C1F8204600F0A8F90020207706F0080017
:10246000082819D105F00800082815D1C0432168B3
:102470000861042020772068C06900F0030018B1CB
:102480002046FFF7C9FD05E0204600F0A3F82046EE
:1024900000F08AF90020207706F01000102819D1EA
:1024A00005F01000102815D1C043216808610820EC
:1024B00020772068C06900F4407018B12046FFF70B
:1024C000ABFD05E0204600F085F8204600F06CF9F1
:1024D0000020207706F0010048B105F0010030B17E
:1024E0006FF0010021680861204600F0C9F906F08C
:1024F0008000802809D105F08000802805D1C043E4
:10250000216808612046FFF743FD06F0400040289F
:1025100009D105F04000402805D1C0432168086179
:10252000204600F0C7F906F02000202809D105F068
:102530002000202805D1C043216808612046FFF70C
:1025400028FD70BD10B586B00446002002900390AF
:10255000049005902068B0F1804F17D100BF1A4851
:10256000806940F00400184988610846806900F0DD
:102570000400019000BF00BF0F20029002200390D2
:10258000059002A91148FEF73DFC1AE010492068A9
:10259000884216D100BF0C48806940F004000A4907
:1025A00088610846806900F00400019000BF00BF08
:1025B000C020029002200390059002A90348FEF774
:1025C00021FC06B010BD00000010024000080140D0
:1025D0000004004070472DE9F04104460D461646C0
:1025E000002700BF94F83C00012802D10220BDE87A
:1025F000F081012084F83C0000BF36B1042E1BD0CE
:10260000082E31D00C2E5ED145E02946206801F01D
:1026100053FB2068806940F00800216888612068C9
:10262000806920F004002168886120688069296938
:1026300008432168886148E02946206801F06CFB66
:102640002068806940F400602168886120688069A2
:1026500020F480602168886120688069296940EAE7
:1026600001202168886130E02946206801F088FB5C
:102670002068C06940F008002168C8612068C0690E
:1026800020F004002168C8612068C06929690843F6
:102690002168C86119E02946206801F0A5FB20687F
:1026A000C06940F400602168C8612068C06920F4F6
:1026B00080602168C8612068C069296940EA0120FA
:1026C0002168C86101E0012700BF00BF00BF0020F2
:1026D00084F83C0000BF384689E710B504460CB9C1
:1026E000012010BD94F83D0028B9002084F83C007A
:1026F000204600F025F8022084F83D00211D2068C6
:1027000001F086FA012084F8460000BF84F83E00FC
:1027100001213F200155402001554120015500BFB6
:1027200000BF012084F84200432001554420015598
:102730004520015500BF012084F83D000020D0E76E
:1027400038B504462068B0F1804F16D100BF144858
:10275000C06940F001001249C8610846C06900F034
:102760000100009000BF00BF002202211C20FFF7E3
:102770004DF81C20FFF73AF811E00A49206888421A
:102780000DD100BF0648C06940F002000449C8618D
:102790000846C06900F00200009000BF00BF38BDCD
:1027A00000100240000400407047000070B504466D
:1027B0000D4615B994F83E000BE0042D02D13F20E0
:1027C000005D06E0082D02D14020005D01E04120BF
:1027D000005D012801D0012070BD1DB9022084F8E0
:1027E0003E000EE0042D03D102213F20015508E0F8
:1027F000082D03D102214020015502E00221412091
:10280000015501222946206801F044FA194920683F
:10281000884201D1012000E0002028B12068406CEE
:1028200040F40040216848641249206888420BD077
:102830002068B0F1804F07D00F492068884203D04C
:102840000E49206888420CD12068806800F0070695
:10285000062E0CD02068006840F001002168086056
:1028600005E02068006840F0010021680860002051
:10287000B2E70000002C01400004004000080040C6
:1028800070470246002031B1042907D0082908D03A
:102890000C290CD108E01368586B09E01368986B99
:1028A00006E01368D86B03E01368186C00E000BF03
:1028B00000BF704770477047704700002DE9F84F20
:1028C0000446206805682068C668206847694FF09C
:1028D0000009CA4605F00F09B9F1000F0AD105F049
:1028E000200038B106F0200020B1204601F02CFC79
:1028F000BDE8F88FB9F1000F7BD007F0010018B9DF
:1029000006F49070002874D005F0010030B106F490
:10291000807018B1606C40F00100606405F0040044
:1029200030B107F0010018B1606C40F00200606443
:1029300005F0020030B107F0010018B1606C40F002
:102940000400606405F0080048B106F0200010B9EA
:1029500007F0010018B1606C40F008006064606C22
:10296000002845D005F0200028B106F0200010B165
:10297000204601F0E9FB20684069C0F3801A606CD2
:1029800000F0080010B9BAF1000F2CD0204601F079
:10299000F9FA2068406900F0400000B300BF00BFB2
:1029A0002168143151E8001F21F0400021681431E2
:1029B00041E80002002AF3D100BFE06B50B1774834
:1029C000E16B4863E06BFEF7B1F988B1E06B416BF6
:1029D00088470DE02046FFF76FFF09E009E0204639
:1029E000FFF76AFF04E02046FFF766FF00206064FF
:1029F0007EE7206B012877D105F01000002873D006
:102A000006F010000028FAD000BF002000902068D7
:102A10000068009020684068009000BF00BF2068F8
:102A2000406900F0400000285FD0E06B006840681B
:102A30001FFA80F8B8F1000F55D0A08D404552DD47
:102A4000A4F82E80E06B8069202843D000BF00BF2F
:102A500021680C3151E8001F21F4807021680C318D
:102A600041E80002002AF3D100BF00BF00BF216887
:102A7000143151E8001F21F001002168143141E8B0
:102A80000002002AF3D100BF00BF00BF216814314B
:102A900051E8001F21F040002168143141E8000294
:102AA000002AF3D100BF202084F8420000202063D8
:102AB00000BF00BF21680C3151E8001F21F0100059
:102AC00021680C3141E80002002AF3D100BFE06B1D
:102AD000FEF701F902206063A08DE28D801A81B2B9
:102AE0002046FFF7E8FE03E742E0A08DE18D401AA3
:102AF0001FFA80F8E08DD0B3B8F1000F37D000BFD7
:102B000000BF21680C3151E8001F21F4907021684A
:102B10000C3141E80002002AF3D100BF00BF00BF22
:102B20002168143151E8001F21F00100216814319F
:102B300041E80002002AF3D100BF202084F84200BF
:102B40000020206300BF00BF21680C3151E8001F46
:102B500021F0100021680C3141E80002002AF3D175
:102B600000BF0220606341462046FFF7A4FEBFE697
:102B700005F0800030B106F0800018B1204601F069
:102B8000FFFBB5E605F0400030B106F0400018B19B
:102B9000204601F02DFAABE600BFA9E6473F00084A
:102BA00010B504460CB9012010BDA06900B100E0C9
:102BB00000BF94F8410028B9002084F84000204666
:102BC00000F02AF8242084F841002068C06820F42E
:102BD00000502168C860204601F034FB206800697D
:102BE00020F49040216808612068406920F02A00A4
:102BF000216848612068C06840F400502168C860BE
:102C000000206064202084F8410084F84200002005
:102C1000606300BFC8E7000010B586B0044600201E
:102C200002900390049005901E492068884236D196
:102C300000BF1D48806940F480401B4988610846F8
:102C4000806900F48040019000BF00BF00BF0846CB
:102C5000806940F0040088610846806900F0040043
:102C6000019000BF00BF481502900220039003208E
:102C7000059002A90D48FEF7C5F84FF48060029058
:102C800000200390049002A90848FEF7BBF8002238
:102C900001212520FEF7BAFD2520FEF7A7FD06B08D
:102CA00010BD000000380140001002400008014043
:102CB00070B504460D46164694F8420020280BD104
:102CC00005B10EB9012070BD0020206332462946AF
:102CD000204601F035FBF6E70220F4E710B5044684
:102CE0001C492068884233D11B48007828B1012252
:102CF0001A491B48FFF7DCFF10BD18480178194836
:102D000002780078401C174B1870174881541846F9
:102D100000780A280DDB18460178134801F060FBA3
:102D200018B10120114908700AE000200D4908700F
:102D300006E00C4800780A2802D3002009490870F0
:102D40000A48007820B9012204490548FFF7B0FF7E
:102D500000BFD1E7003801401E0000201A0000200B
:102D60009C0100201B000020000200201D0000200C
:102D70002DE9F84F04460E46174699464FF0000AD3
:102D800094F84100202850D106B117B90120BDE8C0
:102D9000F88F00206064212084F84100FEF7C8F914
:102DA0008246A784E784A068B0F5805F04D12069DB
:102DB00010B90025B04602E035464FF000081EE08D
:102DC0005346002280212046CDF8009001F019FBE7
:102DD00020B1202084F841000320D8E745B9B8F895
:102DE0000000C0F308002168486008F1020803E011
:102DF0002878216848606D1CE08C401EE084E08CDF
:102E00000028DDD15346002240212046CDF8009015
:102E100001F0F7FA20B1202084F841000320B6E742
:102E2000202084F841000020B1E70220AFE770477E
:102E300000BFFEE7014608684069C0F38020B0B1DA
:102E40006FF480600A68506100200863202081F8D8
:102E50003D00002081F83E00086C40F0040008644A
:102E600000BF002081F83C0000BF01207047002017
:102E7000FCE700002DE9F84304460F461546994645
:102E8000DDE908862068006840F4806021680860F9
:102E90002068006840F48070216808604346002282
:102EA0004FF001112046009600F094F860B12068C0
:102EB000006800F48070B0F5807F02D14FF400709C
:102EC00020640320BDE8F88307F0FE002168086154
:102ED000334642463E49204600F0DBF808B1012067
:102EE000F0E700BF00200090206840690090206853
:102EF0008069009000BF00BF32464146204600F086
:102F00008AF950B1206C042805D12068006840F48B
:102F10000070216808600120D4E7B9F1010F03D1E6
:102F2000E8B22168086117E0C5F30720216808614D
:102F300032464146204600F06EF950B1206C04281C
:102F400005D12068006840F4007021680860012005
:102F5000B8E7E8B22168086132464146204600F0F1
:102F60005AF950B1206C042805D12068006840F45B
:102F70000070216808600120A4E72068006840F420
:102F8000807021680860434600224FF001112046FE
:102F9000009600F01FF858B12068006800F48070B7
:102FA000B0F5807F02D14FF400702064032089E7E0
:102FB000F8B240F0010021680861334642460449F6
:102FC000204600F066F808B101207BE7002079E791
:102FD000020001002DE9F04104460D4617461E4649
:102FE000DDF8188038E0701CA8B3FEF7A1F8A0EB5C
:102FF0000800B04200D876BBC5F3074001280AD1CB
:1030000020684069A9B20840A9B2884201D10120D4
:103010000BE0002009E020688069A9B20840A9B24D
:10302000884201D1012000E00020B84214D10020E4
:103030002063202084F83D00002084F83E00206CAE
:1030400040F02000206400BF002084F83C0000BF56
:103050000120BDE8F081FFE7C5F3074001280AD150
:1030600020684069A9B20840A9B2884201D1012074
:103070000BE0002009E020688069A9B20840A9B2ED
:10308000884201D1012000E00020B842ABD00020EE
:10309000DFE72DE9F04104460D4616461F4658E08D
:1030A00020684069C0F38020E8B12068006840F4DF
:1030B0000070216808606FF480602168486100201A
:1030C0002063202084F83D00002084F83E00206C1E
:1030D00040F00400206400BF002084F83C0000BFE2
:1030E0000120BDE8F081701C90B3FEF721F8C01BF1
:1030F000B04200D866BBC5F3074001280AD120685A
:103100004069A9B20840A9B2884201D101200BE070
:10311000002009E020688069A9B20840A9B288426D
:1031200001D1012000E0002090B900202063202080
:1031300084F83D00002084F83E00206C40F0200020
:10314000206400BF002084F83C0000BF0120C8E7D5
:10315000FFE7C5F3074001280AD120684069A9B2FA
:103160000840A9B2884201D101200BE0002009E00B
:1031700020688069A9B20840A9B2884201D1012023
:1031800000E0002000288BD00020AAE770B504469C
:103190000D46164637E020684069C0F30010A0B124
:1031A0006FF010002168486100202063202084F81F
:1031B0003D00002084F83E00206C206400BF002009
:1031C00084F83C0000BF012070BDFDF7B1FF801BFB
:1031D000A84200D8BDB920684069C0F3801090B9FA
:1031E00000202063202084F83D00002084F83E0069
:1031F000206C40F02000206400BF002084F83C00D8
:1032000000BF0120E0E720684069C0F3801000287B
:10321000C1D00020D8E770B504460D46164625E01B
:103220002046FFF707FE08B1012070BD681CE8B119
:10323000FDF77EFF801BA84200D8BDB92068406919
:10324000C0F3C01090B900202063202084F83D0016
:10325000002084F83E00206C40F02000206400BF75
:10326000002084F83C0000BF0120DEE720684069B0
:10327000C0F3C0100028D3D00020D6E710B50D4809
:103280000D4908600420486000210B488160C1603E
:103290004FF44021016189004161002101764176AE
:1032A0008176C17601774177FDF7D4FB08B1FDF750
:1032B0000FF910BD006400404800002000B585B043
:1032C0000020019002900390049000BF484880695C
:1032D00040F01000464988610846806900F01000FF
:1032E000009000BF00BF00BF0846806940F020008A
:1032F00088610846806900F02000009000BF00BF90
:1033000000BF0846806940F0040088610846806973
:1033100000F00400009000BF00BF00BF08468069B5
:1033200040F0080088610846806900F008000090BD
:1033300000BF00BF00224FF400512E48FDF7F2FEFF
:10334000012230212C48FDF7EDFE002241212B48BF
:10335000FDF7E8FE00224FF618012848FDF7E2FECF
:1033600000224FF480712448FDF7DCFE4FF400503A
:10337000019001200290002003900220049001A9F6
:103380001C48FDF73FFD30200190112002900020E5
:1033900003900220049001A91748FDF733FD412056
:1033A000019001200290002003900220049001A9C6
:1033B0001248FDF727FD4FF61800019001200290FA
:1033C000002003900220049001A90C48FDF71AFD8B
:1033D0004FF48070019001200290002003900220A1
:1033E000049001A90448FDF70DFD05B000BD0000E3
:1033F000001002400010014000080140000C014094
:1034000010B50B480B4908600B484860002109487B
:103410008160C1604FF4804101610021416181619F
:10342000C1610162FDF78AFE08B1FDF751F810BDD8
:103430000054004070000020A086010000B589B053
:103440000020079008901C216846FCF772FE4FF0A0
:1034500080402349086006204860002120488160A0
:1034600040F2E731C160002101618161FFF735F968
:1034700008B1FDF72DF800200790089007A918481B
:10348000FEF788FD08B1FDF723F8602000900020CA
:10349000019002900490002269461148FFF79BF8C2
:1034A00008B1FDF715F8042269460D48FFF793F8B7
:1034B00008B1FDF70DF8082269460948FFF78BF8B7
:1034C00008B1FDF705F80C2269460548FFF783F8B7
:1034D00008B1FCF7FDFF0248FFF734F809B000BD62
:1034E000C400002000B589B00020079008901C217E
:1034F0006846FCF71EFE1C481C49086047204860CF
:1035000000211A48816044F61F61C16000210161F9
:103510008161FFF7E2F808B1FCF7DAFF00200790BD
:10352000089007A91148FEF735FD08B1FCF7D0FF58
:1035300060200090002001900290049000226946D3
:103540000A48FFF748F808B1FCF7C2FF04226946B1
:103550000648FFF740F808B1FCF7BAFF0348FEF74A
:10356000F1FF09B000BD0000000400400C01002084
:103570001FB500200090019002900390114812495D
:1035800008604720486000210F4881604FF6FF71B6
:10359000C160002101618161FEF7FBFD08B1FCF70C
:1035A00097FF0020009001200190002002900390DE
:1035B000042269460448FEF77DFD08B1FCF788FF48
:1035C0001FBD0000000800405401002010B50B484A
:1035D0000B4908604FF4E1304860002108488160E1
:1035E000C16001610C21416100218161C161FFF76E
:1035F000D7FA08B1FCF76CFF10BD0000003801409D
:103600009C01002000BFFEE70146FF20704700003C
:1036100010B500200B4908700B4908700B49087061
:103620000B490880FDF784FD0A490860FDF780FD1D
:103630000949086000200949087001F03FF800F0CE
:103640002FFF10BD34000020350000203600002080
:10365000380000203C0000204000002044000020F2
:103660000020704701460748007848B106480078B6
:1036700030B106480068081AFA2801D801207047BE
:103680000020FCE736000020350000203C00002030
:10369000FEB50646002000900190029000243046BE
:1036A000FFF7E0FF05460DB144F00104FFF7D8FF36
:1036B00008B144F002041D48007808B144F0040445
:1036C0001A48007810B10DB944F00804B5208DF8FF
:1036D000000001208DF801001548008800128DF8C7
:1036E0000200134800788DF803002846FFF78CFF8E
:1036F0008DF8040000F0F0FF8DF805008DF806400D
:103700000C4800788DF807000A480078401C0949E9
:10371000087000208DF80800B6208DF809000A23F3
:103720001A4669460448FFF723FBFEBD340000201B
:1037300038000020440000209C01002010B5044601
:10374000024804700CB900F0CDFF10BD3400002019
:103750007CB5FDF7EDFC044600F042FF694601A888
:1037600000F0E2FE88B19DF8000010B1BDF8040041
:1037700000E00020114908809DF800001049087001
:10378000012010490870104804602046FFF76AFFC6
:1037900005460E49097811B10DB1012100E0002163
:1037A000084600F0A5FF0A480068201AC82804D37C
:1037B000074804602046FFF76BFF7CBD38000020FF
:1037C00035000020360000203C000020340000209E
:1037D0004000002010B5024800F0C0F810BD000005
:1037E000E401002070B50446002C02DB01F0D6F89D
:1037F00001E001F0C3F8204601F0AEF80546294685
:10380000042001F03BF970BD70B50446002C02DBCA
:1038100001F0E4F801E001F0D1F8204601F09CF855
:1038200005462946002001F029F970BD70B504460F
:10383000002C02DB01F0F0F801E001F0DFF8204697
:1038400001F08AF8054629460C2001F017F970BDF1
:1038500070B50446002C02DB01F0FEF801E001F037
:10386000E9F8204601F078F805462946082001F0DD
:1038700005F970BD00BFFEE72DE9FE4F04460F4677
:10388000904614B90020BDE8FE8F404601F00EF9C5
:10389000824651463846FCF7A9FC814601F006F9FC
:1038A00005460021E068FCF753FD22D0294928464F
:1038B000FCF758FD1DD228492846FCF749FD18D2CF
:1038C00029462068FCF740FC206061692068FCF70D
:1038D00049FD02D2606920600BE0606980F0004918
:1038E00048462168FCF73EFD03D2606980F0004045
:1038F000206028466168FCF779FC83466560216892
:10390000E068FCF779FC029059462069FCF774FCEA
:1039100001902946A068FCF76FFC00900199FCF724
:1039200013FC81460299FCF70FFC06463046A1695C
:10393000FCF718FD01D2A6690AE0A06980F00049F1
:1039400031464846FCF70EFD02D2A06980F00046E1
:10395000304698E70000F0C10000F04100B9704720
:10396000064981600902C16001610549416105495B
:10397000816100210160416000BFF0E7000040412B
:1039800000000C420000AF437047000008B5084932
:103990000968C9084FF47A72B1FBF2F14143009112
:1039A00000BF00BF00994A1E00920029F9D108BD4E
:1039B0000C0000202DE9FE4F04460D4616461F461A
:1039C000DDE90C9AB42C00DDB4242046FCF78DFC14
:1039D00009490290FCF710FC8346FCF7A4FC8046E2
:1039E0000E984B463A463146CDE9008A0290284669
:1039F000FCF738FDBDE8FE8F000048442DE9FF418B
:103A00004FF0FF30022103AA0123CDE900210290EB
:103A10003F22A0210D48FDF779FC05461DB100208D
:103A200004B0BDE8F0819DF80C009DF80D1040EA4F
:103A300001242046FCF759FC07464FF08E41FCF765
:103A40000DFC06460249FCF7D7FBE9E770000020B1
:103A5000000034437047000010B500210348FEF712
:103A6000A5FE04210148FEF7A1FE10BD0C010020B7
:103A7000B42800DDB4204FF4FA624243B423B2FB11
:103A8000F3F202F5FA71024A12689163704700007E
:103A90000C01002010B5FFF7B1FF0446234608488B
:103AA0000268084801880848008800F02BFFFFF7EB
:103AB0004FFE0648007810B1042000F025F810BD34
:103AC0001400002012000020100000201D00002023
:103AD00010B500F02DFFFFF77DFE0648FCF7AEFCA9
:103AE00000F03CFAFFF7B8FFFFF792FD012000F06D
:103AF0000BF810BD480000200020024908704870F3
:103B0000704700001800002005490978814205D05F
:103B100003490978024A5170114608707047000045
:103B20001800002010B50F480078052813D2DFE8F0
:103B300000F00306090C0F00FFF7CAFF0FE0FFF7C4
:103B4000A9FF0CE000F010F809E000F00EF806E024
:103B500000F00CF803E00120FFF7D6FF00BF00BF24
:103B600010BD0000180000207047704710B500F02D
:103B70009FFA00F04DFA0120FFF7C6FF10BD10B507
:103B8000FDF7C4FD10BD00B58FB0282105A8FCF7D6
:103B9000D0FA14216846FCF7CCFA01200590000405
:103BA0000690002007900120099002200C90C1038C
:103BB0000D914FF4E0110E9105A8FDF79DFF08B19E
:103BC000FCF786FC0F20009002200190002002905C
:103BD0004FF4806003900020049002216846FDF7B6
:103BE00067FE08B1FCF774FC0FB000BD7047000021
:103BF00010B50248FEF7F0FB10BD0000C400002025
:103C000010B50248FEF7E8FB10BD0000540100208B
:103C100010B502681C4B984208D0B0F1804F05D017
:103C20001A4B984202D01A4B984203D122F07002EC
:103C30004B681A43144B984208D0B0F1804F05D01E
:103C4000124B984202D0124B984203D122F4407298
:103C5000CB681A4322F080034C6943EA04020260F5
:103C60008B68C3620B688362074B984201D10B6972
:103C7000036301234361036903F001031BB103697B
:103C800023F00103036110BD002C0140000400403B
:103C90000008004030B501F01F05012404FA05F3C7
:103CA000046A9C430462046A01F01F0502FA05F5E8
:103CB0002C43046230BD000030B5026A056A25F06D
:103CC000010505624368846924F0700424F003044C
:103CD0000D682C4322F002028D682A430D4DA84244
:103CE00006D100BF22F00802CD682A4322F0040268
:103CF000084DA84207D123F4807323F400734D6963
:103D00002B438D692B43436084614D684563026298
:103D100030BD0000002C014030B5026A056A25F074
:103D2000100505624368846924F4E04424F4407477
:103D30000D6844EA052422F020028D6842EA05124B
:103D40000E4DA84207D100BF22F08002CD6842EAA2
:103D5000051222F04002094DA84209D123F48063E4
:103D600023F400634D6943EA85038D6943EA8503C3
:103D7000436084614D688563026230BD002C014060
:103D800030B5026A056A25F4807505624368C46926
:103D900024F0700424F003040D682C4322F4007214
:103DA0008D6842EA05220F4DA84207D100BF22F4D8
:103DB0000062CD6842EA052222F48062094DA842E1
:103DC00009D123F4805323F400534D6943EA0513CA
:103DD0008D6943EA05134360C4614D68C56302629F
:103DE00030BD0000002C014030B5036A056A25F49F
:103DF000805505624468C26922F4E04222F44072B0
:103E00000D6842EA052223F400538D6843EA053326
:103E1000064DA84204D124F480444D6944EA851437
:103E20004460C2614D680564036230BD002C0140EE
:103E300070B50C461546026A066A26F0010606624F
:103E40008169124EB04208D0B0F1804F05D0104EBB
:103E5000B04202D00F4EB04201D1012600E0002650
:103E60001EB121F00301294301E041F0010121F0DD
:103E7000F001F02606EA0316314322F00A0204F0AC
:103E80000A0632438161026270BD0000002C0140CD
:103E9000000400400008004070B50C461546026A58
:103EA000066A26F010060662816921F4407141EA33
:103EB000052121F470414FF4704606EA0336314380
:103EC00022F0A002A02606EA0416324381610262B3
:103ED00070BD70B50C461546026A066A26F48076F7
:103EE0000662C16921F00301294321F0F001F026A7
:103EF00006EA0316314322F400724FF4007606EA14
:103F000004263243C161026270BD70B50C4615468D
:103F1000026A066A26F480560662C16921F440717D
:103F200041EA052121F470414FF4704606EA033658
:103F3000314322F400524FF4005606EA043632436D
:103F4000C161026270BD70B505466C6A0020E085F3
:103F5000E0842046FEF7B0FC70BD000010B50020E4
:103F60000449087004490870012204490448FEF716
:103F70009FFE10BD1D0000201B0000201A00002025
:103F80009C01002000BF00BF02680C3252E8002FE5
:103F900022F4907102680C3242E80013002BF3D136
:103FA00000BF00BF00BF0268143252E8002F22F0A9
:103FB00001010268143242E80013002BF3D100BF64
:103FC000016B01290ED100BF00BF02680C3252E81C
:103FD000002F22F0100102680C3242E80013002B7F
:103FE000F3D100BF202180F8421000210163704707
:103FF00010B504462068C06820F040002168C86001
:10400000202084F841002046FEF711FF002010BD5B
:104010000EB52248407822490880204880782149FE
:1040200008801E49C878FCF760F91F4908601B49E1
:104030000879FFF71DFD194880791C498979884264
:1040400010D0002001210522CDE900210290134962
:1040500088790A2300220221FCF73EFA0F48807972
:10406000124988710120FCF7B9FE0C4840790F49CC
:104070004979884210D0002001210522CDE9002194
:10408000029006494879642301221146FFF792FC09
:1040900002484079054948710EBD00000A0200201F
:1040A0001000002012000020140000201402002044
:1040B00010B51E48007800B910BD01201C490870D9
:1040C0001C4800781C4908701A4840784870194804
:1040D000807888701748C078C870164800790871D1
:1040E0001448407948711348807988711148C07923
:1040F000C8711048007A08720E48407A4872C9792F
:1041000009B1012100E000210846FFF717FB00205C
:1041100007490870094908700449087001220849D4
:104120000848FEF7C5FD00BFC6E700001D000020DF
:104130001E000020000200200A0200201B000020B8
:104140001A0000209C010020F8B5044694F84200B3
:10415000222875D1A068B0F5805F0CD1206950B9D4
:104160000025A66A20684068C0F308003080A06A75
:10417000801CA06215E0A56A0026A068B0F5805FEB
:1041800003D0A06828B9206918B920684068287051
:1041900004E02068406800F07F002870A06A401C9E
:1041A000A062E08D401E80B2E085002846D12068E4
:1041B000C06820F020002168C8602068C06820F432
:1041C00080702168C8602068406920F00100216883
:1041D0004861202084F8420000206063206B0128A1
:1041E00026D10020206300BF00BF21680C3151E8B8
:1041F000001F21F0100021680C3141E80002002A64
:10420000F3D100BF2068006800F0100010280AD128
:1042100000BF00200090206800680090206840687F
:10422000009000BF00BFA18D2046FEF744FB02E0D6
:104230002046FEF753FD0020F8BD01E00020FBE71B
:104240000220F9E770B504462168096921F440515C
:10425000E2681143226811612269A1681143626911
:1042600041EA02052168C96841F20C629143294381
:104270002268D1602168496921F44071A269114323
:10428000226851612D4A2168914202D1FDF7ECFB71
:1042900001E0FDF7D9FB00EBC00101EB0011626802
:1042A0009200B1FBF2F100EBC00202EB0012636876
:1042B0009B00B2FBF3F26423B2FBF3F202EBC20306
:1042C00003EB0212A1EB8201322202EB0111642204
:1042D000B1FBF2F101F0F00100EBC00202EB0012C1
:1042E00063689B00B2FBF3F26423B2FBF3F201EBD1
:1042F000021200EBC00101EB001163689B00B1FBEF
:10430000F3F100EBC00303EB00136668B600B3FBE8
:10431000F6F36426B3FBF6F303EBC30606EB0313D5
:10432000A1EB8301322303EB01116423B1FBF3F111
:1043300001F00F0111442268916070BD0038014006
:1043400010B5034699629A85DA85002058642220C8
:1043500083F84200186928B11868C06840F480707A
:104360001C68E0601868406940F001001C686061EA
:104370001868C06840F020001C68E060002010BD94
:10438000014691F84100212828D18868B0F5805F66
:104390000BD1086948B90A6A1088C0F308000B6895
:1043A0005860086A801C086205E00B6A581C0862A5
:1043B00018780B685860C88C401E80B2C88458B901
:1043C0000868C06820F080000B68D8600868C06882
:1043D00040F040000B68D860002070470220FCE7E6
:1043E00002460A2901D0002070471078B32801D076
:1043F0000020F9E7507AB42801D00020F4E701202A
:10440000F2E72DE9F84304460D4617469846089E04
:1044100031E0701C70B3FCF78BFEA0EB0800B042DB
:1044200000D816B90320BDE8F8832068C06800F002
:104430000400F8B1802D1ED0402D1CD020680068EB
:10444000C0F3C000B0B100BF002000902068006839
:10445000009020684068009000BF00BF2046FFF732
:1044600091FD0820606400BF002084F8400000BF78
:104470000120D8E7FFE7206800682840A84201D162
:10448000012000E00020B842C3D00020CBE70000AC
:1044900010B50248FEF712FA10BD00009C01002082
:1044A00010B5002016490870164908801649088082
:1044B00016490860164908601649088016490870B0
:1044C00016490870002240211548FCF72BFE0020F9
:1044D00014490968486200BF12480068006A20F069
:1044E000A0001049096808620E480068006A0D497A
:1044F0000968086200BF04210A48FDF7BDFE10BD2F
:10450000200000202200002024000020280000209D
:104510002C0000203000002032000020330000205A
:10452000000C01405401002002460948007808B9F7
:104530000020704712B107480088108011B106486A
:10454000007808700020024B18700120F1E700008D
:1045500033000020300000203200002010B500BFE2
:104560001A480068006A20F0A0001849096808622B
:1045700016480068006A15490968086200BF6FF0B4
:104580000400124909680861012011490870FCF70C
:10459000CFFD10490860084600680F4908600122F5
:1045A00040210E48FCF7BEFD08480068406A84B20E
:1045B00000BF06480068406A001B80B20C28F8D390
:1045C000002240210548FCF7ADFD10BD540100203C
:1045D00020000020280000202C000020000C0140BA
:1045E00010B5FCF7A5FD04462B480078032820D120
:1045F0002A49098801EB81011D2202EB41013A227F
:10460000B1FBF2F0142808D3B0F57A6F05D8244A2C
:1046100010800121234A117004E00021204A1180FA
:10462000204A11700121204A117000211A4A11708C
:1046300027E019480078012803D01748007802289D
:104640001FD11A480068201A23281AD300BF18481F
:104650000068006A20F0A000154909680862144843
:104660000068006A12490968086200BF00200C490E
:1046700008800C49087001200B4908700020064989
:1046800008700548007830B90A480068201A3C28AC
:1046900001D3FFF763FF10BD20000020240000209D
:1046A00030000020320000203300002028000020CD
:1046B000540100202C00002000BFFEE710B50020B0
:1046C00003490870002201210248FCF72BFD10BDB0
:1046D0001F000020000C01400148007870470000D6
:1046E0001F00002010B5002000F002F810BD0000EF
:1046F00010B50446224601210248FCF713FD02488A
:10470000047010BD000C01401F000020024800682A
:10471000C0F30220704700000CED00E010B5002847
:1047200004DB0A07130E054A135406E00A07140EA9
:10473000034A00F00F031B1FD45410BD00E400E037
:1047400018ED00E002E008C8121F08C1002AFAD1E3
:1047500070477047002001E001C1121F002AFBD101
:10476000704700002DE9F04F89B004460F46002540
:10477000AA46A8460026AB460020019002900CB144
:10478000022F02DA09B0BDE8F08F07212E48FBF7AF
:10479000CFFEB81E00F0FF0A51E0AAEB050000F0C2
:1047A000FF0800200190029003902178584661F3A1
:1047B0001F20049004200590002006908DF8200012
:1047C00060788DF80400B8F1070F0FDA002607E0D3
:1047D000A81C215C01AA701C1154C6B2681CC5B289
:1047E0004645F5DB08F1010007900DE0002607E0E3
:1047F000A81C215C01AA701C1154C6B2681CC5B269
:10480000072EF5DB08200790FCF792FC814609E0B3
:10481000FCF78EFCA0EB09000A2800D90AE0012071
:10482000FCF7DCFA6B4601AA03A90748FBF7C0FEB8
:104830000028EDD100BF0BF1010000F0FF0B554542
:10484000ABDB00BF9EE7000048000020FCF76AFFDA
:10485000FFF799F9FEF732FDFEF7F0FDFEF7B6FE21
:10486000FEF740FEFEF784FEFEF7CAFDFEF706FDEA
:104870004FF47A70FCF7B2FAFFF73EF901E0FFF768
:1048800051F9FCE72DE9F84F04460D461646601B2A
:10489000FBF722FD31460090FBF756FC8346FBF701
:1048A00029FD07466019FBF717FD31460090FBF71D
:1048B0009DFC8346FBF71EFD80466019FBF70CFD4F
:1048C00031460090FBF740FC8346FBF713FD814621
:1048D000601BFBF701FD31460090FBF787FC834628
:1048E000FBF708FD82463846FEF78EFF4046FEF78E
:1048F000AFFF4846FEF776FF5046FEF797FFBDE84C
:10490000F88F00002DE9F04106460F4614461D467B
:104910002A4621460548FEF7AFFF80464246394603
:104920003046FFF7AFFFBDE8F0810000E401002052
:1049300010B500210748FDF739FF04210548FDF7B0
:1049400035FF08210348FDF731FF0C210148FDF731
:104950002DFF10BDC40000200246002A01DA534298
:1049600000E0134618460021034B03B1D96811B18A
:10497000884200D908467047C400002010B50022C4
:104980004FF400510448FCF7CDFB0122910302488B
:10499000FCF7C8FB10BD0000000C014010B5002260
:1049A0004FF480410448FCF7BDFB0122510302484B
:1049B000FCF7B8FB10BD0000000C014010B501224F
:1049C00011030548FCF7AEFB00224FF400610248DA
:1049D000FCF7A8FB10BD0000000C014010B501223F
:1049E000D1020548FCF79EFB00224FF4805102489B
:1049F000FCF798FB10BD0000000C014010B501222F
:104A000010210448FCF78EFB002208210148FCF726
:104A100089FB10BD000C014010B50122082104489B
:104A2000FCF780FB002210210148FCF77BFB10BD46
:104A3000000C014010B500224FF400410448FCF77F
:104A400071FB012211020348FCF76CFB10BD000052
:104A5000000C01400008014010B500224FF48071A5
:104A60000448FCF75FFB0122D1030348FCF75AFB23
:104A700010BD000000080140000C014018B90A4AAE
:104A8000126851630EE0042803D1074A126891634B
:104A900008E0082803D1044A1268D16302E0024A00
:104AA0001268116470470000C400002010B504466D
:104AB00004E00B492046FBF799FB044609492046D0
:104AC000FBF750FCF5D304E005492046FBF73CFB1F
:104AD000044605492046FBF73BFCF5D3204610BDB4
:104AE0000000B44300003443000034C30203040553
:104AF000060708090A0B0C0D0E0F1010010200002A
:104B0000000000000000010203040607080900007D
:104B10000000010203040000384B000800000020E0
:104B20004800000044470008804B0008480000206F
:104B3000D8050000544700080000000010000000E5
:104B40000100000000127A000000000000000000D8
:104B50000000000000000000000000000000000055
:104B60000000000000000000000000000000000045
:104B70000000000000000000000000000000000035
:04000005080000ED02
:00000001FF
